{
  "_format": "hh-sol-artifact-1",
  "contractName": "triviaHub",
  "sourceName": "contracts/triviahub.sol",
  "abi": [
    {
      "inputs": [],
      "stateMutability": "nonpayable",
      "type": "constructor"
    },
    {
      "anonymous": false,
      "inputs": [
        {
          "indexed": true,
          "internalType": "address",
          "name": "walletAddress",
          "type": "address"
        },
        {
          "indexed": false,
          "internalType": "uint256",
          "name": "createdAt",
          "type": "uint256"
        }
      ],
      "name": "PlayerRegistered",
      "type": "event"
    },
    {
      "anonymous": false,
      "inputs": [
        {
          "indexed": true,
          "internalType": "address",
          "name": "player",
          "type": "address"
        },
        {
          "indexed": false,
          "internalType": "uint256",
          "name": "totalScore",
          "type": "uint256"
        },
        {
          "indexed": false,
          "internalType": "uint256",
          "name": "quizScore",
          "type": "uint256"
        },
        {
          "indexed": false,
          "internalType": "uint256",
          "name": "QuizId",
          "type": "uint256"
        }
      ],
      "name": "PlayerScoreUpdated",
      "type": "event"
    },
    {
      "anonymous": false,
      "inputs": [
        {
          "indexed": false,
          "internalType": "uint256",
          "name": "",
          "type": "uint256"
        },
        {
          "indexed": false,
          "internalType": "string",
          "name": "",
          "type": "string"
        },
        {
          "indexed": false,
          "internalType": "string",
          "name": "",
          "type": "string"
        }
      ],
      "name": "addCatgry",
      "type": "event"
    },
    {
      "anonymous": false,
      "inputs": [
        {
          "indexed": false,
          "internalType": "uint256",
          "name": "",
          "type": "uint256"
        },
        {
          "indexed": false,
          "internalType": "uint256",
          "name": "",
          "type": "uint256"
        }
      ],
      "name": "addQstn",
      "type": "event"
    },
    {
      "inputs": [
        {
          "internalType": "uint256",
          "name": "",
          "type": "uint256"
        }
      ],
      "name": "Categories",
      "outputs": [
        {
          "internalType": "uint8",
          "name": "catgryId",
          "type": "uint8"
        },
        {
          "internalType": "string",
          "name": "catgryType",
          "type": "string"
        },
        {
          "internalType": "string",
          "name": "title",
          "type": "string"
        },
        {
          "internalType": "uint256",
          "name": "numberOfQuestions",
          "type": "uint256"
        }
      ],
      "stateMutability": "view",
      "type": "function"
    },
    {
      "inputs": [
        {
          "internalType": "address",
          "name": "",
          "type": "address"
        }
      ],
      "name": "Players",
      "outputs": [
        {
          "internalType": "address",
          "name": "walletAddress",
          "type": "address"
        },
        {
          "internalType": "uint256",
          "name": "totalScore",
          "type": "uint256"
        },
        {
          "internalType": "uint256",
          "name": "createdAt",
          "type": "uint256"
        },
        {
          "internalType": "uint256",
          "name": "updatedAt",
          "type": "uint256"
        },
        {
          "internalType": "uint256",
          "name": "scores",
          "type": "uint256"
        },
        {
          "internalType": "uint256",
          "name": "setId",
          "type": "uint256"
        }
      ],
      "stateMutability": "view",
      "type": "function"
    },
    {
      "inputs": [
        {
          "internalType": "uint8",
          "name": "_catgryId",
          "type": "uint8"
        },
        {
          "internalType": "string",
          "name": "_catgryType",
          "type": "string"
        },
        {
          "internalType": "string",
          "name": "_title",
          "type": "string"
        },
        {
          "internalType": "uint256",
          "name": "_numberOfQuestions",
          "type": "uint256"
        }
      ],
      "name": "addCategory",
      "outputs": [],
      "stateMutability": "nonpayable",
      "type": "function"
    },
    {
      "inputs": [
        {
          "internalType": "uint8",
          "name": "_setId",
          "type": "uint8"
        },
        {
          "internalType": "uint8",
          "name": "_catgryType",
          "type": "uint8"
        },
        {
          "internalType": "string",
          "name": "_difficulty",
          "type": "string"
        },
        {
          "components": [
            {
              "internalType": "uint256",
              "name": "questionId",
              "type": "uint256"
            },
            {
              "internalType": "uint256",
              "name": "catgryId",
              "type": "uint256"
            },
            {
              "internalType": "string",
              "name": "difficulty",
              "type": "string"
            },
            {
              "internalType": "string",
              "name": "questionText",
              "type": "string"
            },
            {
              "internalType": "string[]",
              "name": "options",
              "type": "string[]"
            },
            {
              "internalType": "string",
              "name": "correctOption",
              "type": "string"
            },
            {
              "internalType": "uint256",
              "name": "createdAt",
              "type": "uint256"
            }
          ],
          "internalType": "struct triviaHub.Question[]",
          "name": "_questions",
          "type": "tuple[]"
        }
      ],
      "name": "addQuestionSet",
      "outputs": [],
      "stateMutability": "nonpayable",
      "type": "function"
    },
    {
      "inputs": [],
      "name": "admin",
      "outputs": [
        {
          "internalType": "address",
          "name": "",
          "type": "address"
        }
      ],
      "stateMutability": "view",
      "type": "function"
    },
    {
      "inputs": [
        {
          "internalType": "uint256",
          "name": "",
          "type": "uint256"
        }
      ],
      "name": "categoryIds",
      "outputs": [
        {
          "internalType": "uint8",
          "name": "",
          "type": "uint8"
        }
      ],
      "stateMutability": "view",
      "type": "function"
    },
    {
      "inputs": [
        {
          "components": [
            {
              "internalType": "uint8",
              "name": "setId",
              "type": "uint8"
            },
            {
              "internalType": "uint8",
              "name": "catgryType",
              "type": "uint8"
            },
            {
              "internalType": "string",
              "name": "difficulty",
              "type": "string"
            },
            {
              "components": [
                {
                  "internalType": "uint256",
                  "name": "questionId",
                  "type": "uint256"
                },
                {
                  "internalType": "uint256",
                  "name": "catgryId",
                  "type": "uint256"
                },
                {
                  "internalType": "string",
                  "name": "difficulty",
                  "type": "string"
                },
                {
                  "internalType": "string",
                  "name": "questionText",
                  "type": "string"
                },
                {
                  "internalType": "string[]",
                  "name": "options",
                  "type": "string[]"
                },
                {
                  "internalType": "string",
                  "name": "correctOption",
                  "type": "string"
                },
                {
                  "internalType": "uint256",
                  "name": "createdAt",
                  "type": "uint256"
                }
              ],
              "internalType": "struct triviaHub.Question[]",
              "name": "questions",
              "type": "tuple[]"
            }
          ],
          "internalType": "struct triviaHub.QuestionSet[]",
          "name": "questionSetList",
          "type": "tuple[]"
        }
      ],
      "name": "copyQuestionSetToStorage",
      "outputs": [],
      "stateMutability": "nonpayable",
      "type": "function"
    },
    {
      "inputs": [],
      "name": "getLatestCategoryId",
      "outputs": [
        {
          "internalType": "uint8",
          "name": "",
          "type": "uint8"
        }
      ],
      "stateMutability": "view",
      "type": "function"
    },
    {
      "inputs": [],
      "name": "getLatestQuizId",
      "outputs": [
        {
          "internalType": "uint8",
          "name": "",
          "type": "uint8"
        }
      ],
      "stateMutability": "view",
      "type": "function"
    },
    {
      "inputs": [],
      "name": "latestCatgId",
      "outputs": [
        {
          "internalType": "uint256",
          "name": "",
          "type": "uint256"
        }
      ],
      "stateMutability": "view",
      "type": "function"
    },
    {
      "inputs": [],
      "name": "latestQuizId",
      "outputs": [
        {
          "internalType": "uint256",
          "name": "",
          "type": "uint256"
        }
      ],
      "stateMutability": "view",
      "type": "function"
    },
    {
      "inputs": [],
      "name": "listCategories",
      "outputs": [
        {
          "components": [
            {
              "internalType": "uint8",
              "name": "catgryId",
              "type": "uint8"
            },
            {
              "internalType": "string",
              "name": "catgryType",
              "type": "string"
            },
            {
              "internalType": "string",
              "name": "title",
              "type": "string"
            },
            {
              "internalType": "uint256",
              "name": "numberOfQuestions",
              "type": "uint256"
            }
          ],
          "internalType": "struct triviaHub.Category[]",
          "name": "",
          "type": "tuple[]"
        }
      ],
      "stateMutability": "view",
      "type": "function"
    },
    {
      "inputs": [],
      "name": "listQuestionSets",
      "outputs": [
        {
          "components": [
            {
              "internalType": "uint8",
              "name": "setId",
              "type": "uint8"
            },
            {
              "internalType": "uint8",
              "name": "catgryType",
              "type": "uint8"
            },
            {
              "internalType": "string",
              "name": "difficulty",
              "type": "string"
            },
            {
              "components": [
                {
                  "internalType": "uint256",
                  "name": "questionId",
                  "type": "uint256"
                },
                {
                  "internalType": "uint256",
                  "name": "catgryId",
                  "type": "uint256"
                },
                {
                  "internalType": "string",
                  "name": "difficulty",
                  "type": "string"
                },
                {
                  "internalType": "string",
                  "name": "questionText",
                  "type": "string"
                },
                {
                  "internalType": "string[]",
                  "name": "options",
                  "type": "string[]"
                },
                {
                  "internalType": "string",
                  "name": "correctOption",
                  "type": "string"
                },
                {
                  "internalType": "uint256",
                  "name": "createdAt",
                  "type": "uint256"
                }
              ],
              "internalType": "struct triviaHub.Question[]",
              "name": "questions",
              "type": "tuple[]"
            }
          ],
          "internalType": "struct triviaHub.QuestionSet[]",
          "name": "",
          "type": "tuple[]"
        }
      ],
      "stateMutability": "view",
      "type": "function"
    },
    {
      "inputs": [
        {
          "internalType": "uint256",
          "name": "",
          "type": "uint256"
        }
      ],
      "name": "playerList",
      "outputs": [
        {
          "internalType": "address",
          "name": "",
          "type": "address"
        }
      ],
      "stateMutability": "view",
      "type": "function"
    },
    {
      "inputs": [
        {
          "internalType": "uint256",
          "name": "",
          "type": "uint256"
        }
      ],
      "name": "questionSets",
      "outputs": [
        {
          "internalType": "uint8",
          "name": "setId",
          "type": "uint8"
        },
        {
          "internalType": "uint8",
          "name": "catgryType",
          "type": "uint8"
        },
        {
          "internalType": "string",
          "name": "difficulty",
          "type": "string"
        }
      ],
      "stateMutability": "view",
      "type": "function"
    },
    {
      "inputs": [
        {
          "internalType": "uint256",
          "name": "",
          "type": "uint256"
        }
      ],
      "name": "quizIds",
      "outputs": [
        {
          "internalType": "uint8",
          "name": "",
          "type": "uint8"
        }
      ],
      "stateMutability": "view",
      "type": "function"
    }
  ],
  "bytecode": "0x6080604052348015600f57600080fd5b50336000806101000a81548173ffffffffffffffffffffffffffffffffffffffff021916908373ffffffffffffffffffffffffffffffffffffffff160217905550612b408061005f6000396000f3fe608060405234801561001057600080fd5b50600436106101005760003560e01c80637f7f905d11610097578063be784d5b11610066578063be784d5b146102cb578063d63098dd146102e9578063f57617d014610319578063f851a4401461033757610100565b80637f7f905d146102435780639eb2f74514610261578063a687425d1461027d578063ae6d90731461029b57610100565b80633b9660c4116100d35780633b9660c4146101a457806349b6fdde146101d657806354089355146101f457806369677af31461021057610100565b80630d9fbf6914610105578063169965fe14610123578063276a68051461013f5780632bff8dd61461016f575b600080fd5b61010d610355565b60405161011a91906115d5565b60405180910390f35b61013d600480360381019061013891906117ac565b6103e8565b005b6101596004803603810190610154919061184b565b61054b565b60405161016691906115d5565b60405180910390f35b610189600480360381019061018491906118d6565b61057f565b60405161019b96959493929190611921565b60405180910390f35b6101be60048036038101906101b9919061184b565b6105db565b6040516101cd93929190611a01565b60405180910390f35b6101de6106a7565b6040516101eb91906115d5565b60405180910390f35b61020e60048036038101906102099190611d34565b61073a565b005b61022a6004803603810190610225919061184b565b61094f565b60405161023a9493929190611dd3565b60405180910390f35b61024b610a9c565b6040516102589190611e26565b60405180910390f35b61027b60048036038101906102769190611fd2565b610aa2565b005b610285610d28565b6040516102929190611e26565b60405180910390f35b6102b560048036038101906102b0919061184b565b610d2e565b6040516102c2919061201b565b60405180910390f35b6102d3610d6d565b6040516102e091906123ff565b60405180910390f35b61030360048036038101906102fe919061184b565b611214565b60405161031091906115d5565b60405180910390f35b610321611248565b60405161032e919061254d565b60405180910390f35b61033f611462565b60405161034c919061201b565b60405180910390f35b6000806008805490501161039e576040517f08c379a0000000000000000000000000000000000000000000000000000000008152600401610395906125bb565b60405180910390fd5b600860016008805490506103b2919061260a565b815481106103c3576103c261263e565b5b90600052602060002090602091828204019190069054906101000a900460ff16905090565b60008054906101000a900473ffffffffffffffffffffffffffffffffffffffff1673ffffffffffffffffffffffffffffffffffffffff163373ffffffffffffffffffffffffffffffffffffffff1614610476576040517f08c379a000000000000000000000000000000000000000000000000000000000815260040161046d906126b9565b60405180910390fd5b60405180608001604052808560ff16815260200184815260200183815260200182815250600260008660ff16815260200190815260200160002060008201518160000160006101000a81548160ff021916908360ff16021790555060208201518160010190816104e691906128e5565b5060408201518160020190816104fc91906128e5565b50606082015181600301559050507feab4b8bebfcae60dcddaf1ddd97472da84c2f0930c35cb5e3fc07babb4c7a78f84848460405161053d939291906129e8565b60405180910390a150505050565b6008818154811061055b57600080fd5b9060005260206000209060209182820401919006915054906101000a900460ff1681565b60046020528060005260406000206000915090508060000160009054906101000a900473ffffffffffffffffffffffffffffffffffffffff16908060010154908060020154908060030154908060040154908060050154905086565b60076020528060005260406000206000915090508060000160009054906101000a900460ff16908060000160019054906101000a900460ff169080600101805461062490612708565b80601f016020809104026020016040519081016040528092919081815260200182805461065090612708565b801561069d5780601f106106725761010080835404028352916020019161069d565b820191906000526020600020905b81548152906001019060200180831161068057829003601f168201915b5050505050905083565b600080600380549050116106f0576040517f08c379a00000000000000000000000000000000000000000000000000000000081526004016106e790612a79565b60405180910390fd5b60036001600380549050610704919061260a565b815481106107155761071461263e565b5b90600052602060002090602091828204019190069054906101000a900460ff16905090565b60008054906101000a900473ffffffffffffffffffffffffffffffffffffffff1673ffffffffffffffffffffffffffffffffffffffff163373ffffffffffffffffffffffffffffffffffffffff16146107c8576040517f08c379a00000000000000000000000000000000000000000000000000000000081526004016107bf906126b9565b60405180910390fd5b6000600760008660ff1681526020019081526020016000209050848160000160006101000a81548160ff021916908360ff160217905550838160000160016101000a81548160ff021916908360ff1602179055508281600101908161082d91906128e5565b5060005b825181101561090e57816002018382815181106108515761085061263e565b5b60200260200101519080600181540180825580915050600190039060005260206000209060070201600090919091909150600082015181600001556020820151816001015560408201518160020190816108ab91906128e5565b5060608201518160030190816108c191906128e5565b5060808201518160040190805190602001906108de929190611486565b5060a08201518160050190816108f491906128e5565b5060c0820151816006015550508080600101915050610831565b507feb3d111c06d7801533d6b8be9b3bc6b124814706a02fb763b41a519a9942ffd18585604051610940929190612a99565b60405180910390a15050505050565b60026020528060005260406000206000915090508060000160009054906101000a900460ff169080600101805461098590612708565b80601f01602080910402602001604051908101604052809291908181526020018280546109b190612708565b80156109fe5780601f106109d3576101008083540402835291602001916109fe565b820191906000526020600020905b8154815290600101906020018083116109e157829003601f168201915b505050505090806002018054610a1390612708565b80601f0160208091040260200160405190810160405280929190818152602001828054610a3f90612708565b8015610a8c5780601f10610a6157610100808354040283529160200191610a8c565b820191906000526020600020905b815481529060010190602001808311610a6f57829003601f168201915b5050505050908060030154905084565b60015481565b60008054906101000a900473ffffffffffffffffffffffffffffffffffffffff1673ffffffffffffffffffffffffffffffffffffffff163373ffffffffffffffffffffffffffffffffffffffff1614610b30576040517f08c379a0000000000000000000000000000000000000000000000000000000008152600401610b27906126b9565b60405180910390fd5b60005b8151811015610d24576000600760008381526020019081526020016000209050828281518110610b6657610b6561263e565b5b6020026020010151600001518160000160006101000a81548160ff021916908360ff160217905550828281518110610ba157610ba061263e565b5b6020026020010151602001518160000160016101000a81548160ff021916908360ff160217905550828281518110610bdc57610bdb61263e565b5b602002602001015160400151816001019081610bf891906128e5565b5060005b838381518110610c0f57610c0e61263e565b5b60200260200101516060015151811015610d155781600201848481518110610c3a57610c3961263e565b5b6020026020010151606001518281518110610c5857610c5761263e565b5b6020026020010151908060018154018082558091505060019003906000526020600020906007020160009091909190915060008201518160000155602082015181600101556040820151816002019081610cb291906128e5565b506060820151816003019081610cc891906128e5565b506080820151816004019080519060200190610ce5929190611486565b5060a0820151816005019081610cfb91906128e5565b5060c0820151816006015550508080600101915050610bfc565b50508080600101915050610b33565b5050565b60065481565b60058181548110610d3e57600080fd5b906000526020600020016000915054906101000a900473ffffffffffffffffffffffffffffffffffffffff1681565b6060600060065467ffffffffffffffff811115610d8d57610d8c61164b565b5b604051908082528060200260200182016040528015610dc657816020015b610db36114df565b815260200190600190039081610dab5790505b5090506000600190505b600654811161120c57600760008281526020019081526020016000206040518060800160405290816000820160009054906101000a900460ff1660ff1660ff1681526020016000820160019054906101000a900460ff1660ff1660ff168152602001600182018054610e4190612708565b80601f0160208091040260200160405190810160405280929190818152602001828054610e6d90612708565b8015610eba5780601f10610e8f57610100808354040283529160200191610eba565b820191906000526020600020905b815481529060010190602001808311610e9d57829003601f168201915b5050505050815260200160028201805480602002602001604051908101604052809291908181526020016000905b828210156111c757838290600052602060002090600702016040518060e00160405290816000820154815260200160018201548152602001600282018054610f2f90612708565b80601f0160208091040260200160405190810160405280929190818152602001828054610f5b90612708565b8015610fa85780601f10610f7d57610100808354040283529160200191610fa8565b820191906000526020600020905b815481529060010190602001808311610f8b57829003601f168201915b50505050508152602001600382018054610fc190612708565b80601f0160208091040260200160405190810160405280929190818152602001828054610fed90612708565b801561103a5780601f1061100f5761010080835404028352916020019161103a565b820191906000526020600020905b81548152906001019060200180831161101d57829003601f168201915b5050505050815260200160048201805480602002602001604051908101604052809291908181526020016000905b8282101561111457838290600052602060002001805461108790612708565b80601f01602080910402602001604051908101604052809291908181526020018280546110b390612708565b80156111005780601f106110d557610100808354040283529160200191611100565b820191906000526020600020905b8154815290600101906020018083116110e357829003601f168201915b505050505081526020019060010190611068565b50505050815260200160058201805461112c90612708565b80601f016020809104026020016040519081016040528092919081815260200182805461115890612708565b80156111a55780601f1061117a576101008083540402835291602001916111a5565b820191906000526020600020905b81548152906001019060200180831161118857829003601f168201915b5050505050815260200160068201548152505081526020019060010190610ee8565b5050505081525050826001836111dd919061260a565b815181106111ee576111ed61263e565b5b6020026020010181905250808061120490612ac2565b915050610dd0565b508091505090565b6003818154811061122457600080fd5b9060005260206000209060209182820401919006915054906101000a900460ff1681565b6060600060015467ffffffffffffffff8111156112685761126761164b565b5b6040519080825280602002602001820160405280156112a157816020015b61128e61150d565b8152602001906001900390816112865790505b5090506000600190505b600154811161145a57600260008281526020019081526020016000206040518060800160405290816000820160009054906101000a900460ff1660ff1660ff1681526020016001820180546112ff90612708565b80601f016020809104026020016040519081016040528092919081815260200182805461132b90612708565b80156113785780601f1061134d57610100808354040283529160200191611378565b820191906000526020600020905b81548152906001019060200180831161135b57829003601f168201915b5050505050815260200160028201805461139190612708565b80601f01602080910402602001604051908101604052809291908181526020018280546113bd90612708565b801561140a5780601f106113df5761010080835404028352916020019161140a565b820191906000526020600020905b8154815290600101906020018083116113ed57829003601f168201915b505050505081526020016003820154815250508260018361142b919061260a565b8151811061143c5761143b61263e565b5b6020026020010181905250808061145290612ac2565b9150506112ab565b508091505090565b60008054906101000a900473ffffffffffffffffffffffffffffffffffffffff1681565b8280548282559060005260206000209081019282156114ce579160200282015b828111156114cd5782518290816114bd91906128e5565b50916020019190600101906114a6565b5b5090506114db9190611538565b5090565b6040518060800160405280600060ff168152602001600060ff16815260200160608152602001606081525090565b6040518060800160405280600060ff1681526020016060815260200160608152602001600081525090565b5b80821115611558576000818161154f919061155c565b50600101611539565b5090565b50805461156890612708565b6000825580601f1061157a5750611599565b601f016020900490600052602060002090810190611598919061159c565b5b50565b5b808211156115b557600081600090555060010161159d565b5090565b600060ff82169050919050565b6115cf816115b9565b82525050565b60006020820190506115ea60008301846115c6565b92915050565b6000604051905090565b600080fd5b600080fd5b61160d816115b9565b811461161857600080fd5b50565b60008135905061162a81611604565b92915050565b600080fd5b600080fd5b6000601f19601f8301169050919050565b7f4e487b7100000000000000000000000000000000000000000000000000000000600052604160045260246000fd5b6116838261163a565b810181811067ffffffffffffffff821117156116a2576116a161164b565b5b80604052505050565b60006116b56115f0565b90506116c1828261167a565b919050565b600067ffffffffffffffff8211156116e1576116e061164b565b5b6116ea8261163a565b9050602081019050919050565b82818337600083830152505050565b6000611719611714846116c6565b6116ab565b90508281526020810184848401111561173557611734611635565b5b6117408482856116f7565b509392505050565b600082601f83011261175d5761175c611630565b5b813561176d848260208601611706565b91505092915050565b6000819050919050565b61178981611776565b811461179457600080fd5b50565b6000813590506117a681611780565b92915050565b600080600080608085870312156117c6576117c56115fa565b5b60006117d48782880161161b565b945050602085013567ffffffffffffffff8111156117f5576117f46115ff565b5b61180187828801611748565b935050604085013567ffffffffffffffff811115611822576118216115ff565b5b61182e87828801611748565b925050606061183f87828801611797565b91505092959194509250565b600060208284031215611861576118606115fa565b5b600061186f84828501611797565b91505092915050565b600073ffffffffffffffffffffffffffffffffffffffff82169050919050565b60006118a382611878565b9050919050565b6118b381611898565b81146118be57600080fd5b50565b6000813590506118d0816118aa565b92915050565b6000602082840312156118ec576118eb6115fa565b5b60006118fa848285016118c1565b91505092915050565b61190c81611898565b82525050565b61191b81611776565b82525050565b600060c0820190506119366000830189611903565b6119436020830188611912565b6119506040830187611912565b61195d6060830186611912565b61196a6080830185611912565b61197760a0830184611912565b979650505050505050565b600081519050919050565b600082825260208201905092915050565b60005b838110156119bc5780820151818401526020810190506119a1565b60008484015250505050565b60006119d382611982565b6119dd818561198d565b93506119ed81856020860161199e565b6119f68161163a565b840191505092915050565b6000606082019050611a1660008301866115c6565b611a2360208301856115c6565b8181036040830152611a3581846119c8565b9050949350505050565b600067ffffffffffffffff821115611a5a57611a5961164b565b5b602082029050602081019050919050565b600080fd5b600080fd5b600080fd5b600067ffffffffffffffff821115611a9557611a9461164b565b5b602082029050602081019050919050565b6000611ab9611ab484611a7a565b6116ab565b90508083825260208201905060208402830185811115611adc57611adb611a6b565b5b835b81811015611b2357803567ffffffffffffffff811115611b0157611b00611630565b5b808601611b0e8982611748565b85526020850194505050602081019050611ade565b5050509392505050565b600082601f830112611b4257611b41611630565b5b8135611b52848260208601611aa6565b91505092915050565b600060e08284031215611b7157611b70611a70565b5b611b7b60e06116ab565b90506000611b8b84828501611797565b6000830152506020611b9f84828501611797565b602083015250604082013567ffffffffffffffff811115611bc357611bc2611a75565b5b611bcf84828501611748565b604083015250606082013567ffffffffffffffff811115611bf357611bf2611a75565b5b611bff84828501611748565b606083015250608082013567ffffffffffffffff811115611c2357611c22611a75565b5b611c2f84828501611b2d565b60808301525060a082013567ffffffffffffffff811115611c5357611c52611a75565b5b611c5f84828501611748565b60a08301525060c0611c7384828501611797565b60c08301525092915050565b6000611c92611c8d84611a3f565b6116ab565b90508083825260208201905060208402830185811115611cb557611cb4611a6b565b5b835b81811015611cfc57803567ffffffffffffffff811115611cda57611cd9611630565b5b808601611ce78982611b5b565b85526020850194505050602081019050611cb7565b5050509392505050565b600082601f830112611d1b57611d1a611630565b5b8135611d2b848260208601611c7f565b91505092915050565b60008060008060808587031215611d4e57611d4d6115fa565b5b6000611d5c8782880161161b565b9450506020611d6d8782880161161b565b935050604085013567ffffffffffffffff811115611d8e57611d8d6115ff565b5b611d9a87828801611748565b925050606085013567ffffffffffffffff811115611dbb57611dba6115ff565b5b611dc787828801611d06565b91505092959194509250565b6000608082019050611de860008301876115c6565b8181036020830152611dfa81866119c8565b90508181036040830152611e0e81856119c8565b9050611e1d6060830184611912565b95945050505050565b6000602082019050611e3b6000830184611912565b92915050565b600067ffffffffffffffff821115611e5c57611e5b61164b565b5b602082029050602081019050919050565b600060808284031215611e8357611e82611a70565b5b611e8d60806116ab565b90506000611e9d8482850161161b565b6000830152506020611eb18482850161161b565b602083015250604082013567ffffffffffffffff811115611ed557611ed4611a75565b5b611ee184828501611748565b604083015250606082013567ffffffffffffffff811115611f0557611f04611a75565b5b611f1184828501611d06565b60608301525092915050565b6000611f30611f2b84611e41565b6116ab565b90508083825260208201905060208402830185811115611f5357611f52611a6b565b5b835b81811015611f9a57803567ffffffffffffffff811115611f7857611f77611630565b5b808601611f858982611e6d565b85526020850194505050602081019050611f55565b5050509392505050565b600082601f830112611fb957611fb8611630565b5b8135611fc9848260208601611f1d565b91505092915050565b600060208284031215611fe857611fe76115fa565b5b600082013567ffffffffffffffff811115612006576120056115ff565b5b61201284828501611fa4565b91505092915050565b60006020820190506120306000830184611903565b92915050565b600081519050919050565b600082825260208201905092915050565b6000819050602082019050919050565b61206b816115b9565b82525050565b600082825260208201905092915050565b600061208d82611982565b6120978185612071565b93506120a781856020860161199e565b6120b08161163a565b840191505092915050565b600081519050919050565b600082825260208201905092915050565b6000819050602082019050919050565b6120f081611776565b82525050565b600081519050919050565b600082825260208201905092915050565b6000819050602082019050919050565b600061212e8383612082565b905092915050565b6000602082019050919050565b600061214e826120f6565b6121588185612101565b93508360208202850161216a85612112565b8060005b858110156121a657848403895281516121878582612122565b945061219283612136565b925060208a0199505060018101905061216e565b50829750879550505050505092915050565b600060e0830160008301516121d060008601826120e7565b5060208301516121e360208601826120e7565b50604083015184820360408601526121fb8282612082565b915050606083015184820360608601526122158282612082565b9150506080830151848203608086015261222f8282612143565b91505060a083015184820360a08601526122498282612082565b91505060c083015161225e60c08601826120e7565b508091505092915050565b600061227583836121b8565b905092915050565b6000602082019050919050565b6000612295826120bb565b61229f81856120c6565b9350836020820285016122b1856120d7565b8060005b858110156122ed57848403895281516122ce8582612269565b94506122d98361227d565b925060208a019950506001810190506122b5565b50829750879550505050505092915050565b60006080830160008301516123176000860182612062565b50602083015161232a6020860182612062565b50604083015184820360408601526123428282612082565b9150506060830151848203606086015261235c828261228a565b9150508091505092915050565b600061237583836122ff565b905092915050565b6000602082019050919050565b600061239582612036565b61239f8185612041565b9350836020820285016123b185612052565b8060005b858110156123ed57848403895281516123ce8582612369565b94506123d98361237d565b925060208a019950506001810190506123b5565b50829750879550505050505092915050565b60006020820190508181036000830152612419818461238a565b905092915050565b600081519050919050565b600082825260208201905092915050565b6000819050602082019050919050565b60006080830160008301516124656000860182612062565b506020830151848203602086015261247d8282612082565b915050604083015184820360408601526124978282612082565b91505060608301516124ac60608601826120e7565b508091505092915050565b60006124c3838361244d565b905092915050565b6000602082019050919050565b60006124e382612421565b6124ed818561242c565b9350836020820285016124ff8561243d565b8060005b8581101561253b578484038952815161251c85826124b7565b9450612527836124cb565b925060208a01995050600181019050612503565b50829750879550505050505092915050565b6000602082019050818103600083015261256781846124d8565b905092915050565b7f4e6f205175697a2073657420617661696c61626c652e00000000000000000000600082015250565b60006125a560168361198d565b91506125b08261256f565b602082019050919050565b600060208201905081810360008301526125d481612598565b9050919050565b7f4e487b7100000000000000000000000000000000000000000000000000000000600052601160045260246000fd5b600061261582611776565b915061262083611776565b9250828203905081811115612638576126376125db565b5b92915050565b7f4e487b7100000000000000000000000000000000000000000000000000000000600052603260045260246000fd5b7f4e6f7420617574686f7269736564000000000000000000000000000000000000600082015250565b60006126a3600e8361198d565b91506126ae8261266d565b602082019050919050565b600060208201905081810360008301526126d281612696565b9050919050565b7f4e487b7100000000000000000000000000000000000000000000000000000000600052602260045260246000fd5b6000600282049050600182168061272057607f821691505b602082108103612733576127326126d9565b5b50919050565b60008190508160005260206000209050919050565b60006020601f8301049050919050565b600082821b905092915050565b60006008830261279b7fffffffffffffffffffffffffffffffffffffffffffffffffffffffffffffffff8261275e565b6127a5868361275e565b95508019841693508086168417925050509392505050565b6000819050919050565b60006127e26127dd6127d884611776565b6127bd565b611776565b9050919050565b6000819050919050565b6127fc836127c7565b612810612808826127e9565b84845461276b565b825550505050565b600090565b612825612818565b6128308184846127f3565b505050565b5b818110156128545761284960008261281d565b600181019050612836565b5050565b601f8211156128995761286a81612739565b6128738461274e565b81016020851015612882578190505b61289661288e8561274e565b830182612835565b50505b505050565b600082821c905092915050565b60006128bc6000198460080261289e565b1980831691505092915050565b60006128d583836128ab565b9150826002028217905092915050565b6128ee82611982565b67ffffffffffffffff8111156129075761290661164b565b5b6129118254612708565b61291c828285612858565b600060209050601f83116001811461294f576000841561293d578287015190505b61294785826128c9565b8655506129af565b601f19841661295d86612739565b60005b8281101561298557848901518255600182019150602085019450602081019050612960565b868310156129a2578489015161299e601f8916826128ab565b8355505b6001600288020188555050505b505050505050565b60006129d26129cd6129c8846115b9565b6127bd565b611776565b9050919050565b6129e2816129b7565b82525050565b60006060820190506129fd60008301866129d9565b8181036020830152612a0f81856119c8565b90508181036040830152612a2381846119c8565b9050949350505050565b7f4e6f2063617465676f7269657320617661696c61626c652e0000000000000000600082015250565b6000612a6360188361198d565b9150612a6e82612a2d565b602082019050919050565b60006020820190508181036000830152612a9281612a56565b9050919050565b6000604082019050612aae60008301856129d9565b612abb60208301846129d9565b9392505050565b6000612acd82611776565b91507fffffffffffffffffffffffffffffffffffffffffffffffffffffffffffffffff8203612aff57612afe6125db565b5b60018201905091905056fea264697066735822122038208486e514d1091485d8f7c8dd21beb9157b98defc9c5c2aacc78de1d1b00364736f6c634300081c0033",
  "linkReferences": {},
  "deployedLinkReferences": {}
}