{
  "_format": "hh-sol-artifact-1",
  "contractName": "triviaHub",
  "sourceName": "contracts/triviaHub.sol",
  "abi": [
    {
      "inputs": [],
      "stateMutability": "nonpayable",
      "type": "constructor"
    },
    {
      "anonymous": false,
      "inputs": [
        {
          "indexed": false,
          "internalType": "address",
          "name": "",
          "type": "address"
        },
        {
          "indexed": false,
          "internalType": "string",
          "name": "",
          "type": "string"
        },
        {
          "indexed": false,
          "internalType": "uint256",
          "name": "",
          "type": "uint256"
        },
        {
          "indexed": false,
          "internalType": "uint256",
          "name": "",
          "type": "uint256"
        }
      ],
      "name": "playerAdded",
      "type": "event"
    },
    {
      "anonymous": false,
      "inputs": [
        {
          "indexed": false,
          "internalType": "address",
          "name": "",
          "type": "address"
        },
        {
          "indexed": false,
          "internalType": "string",
          "name": "",
          "type": "string"
        },
        {
          "indexed": false,
          "internalType": "uint256",
          "name": "",
          "type": "uint256"
        },
        {
          "indexed": false,
          "internalType": "string",
          "name": "",
          "type": "string"
        }
      ],
      "name": "scoreAdded",
      "type": "event"
    },
    {
      "inputs": [],
      "name": "Player",
      "outputs": [
        {
          "internalType": "address",
          "name": "user",
          "type": "address"
        },
        {
          "components": [
            {
              "internalType": "string",
              "name": "quizType",
              "type": "string"
            },
            {
              "internalType": "uint256",
              "name": "score",
              "type": "uint256"
            },
            {
              "internalType": "uint256",
              "name": "date",
              "type": "uint256"
            }
          ],
          "internalType": "struct triviaHub.playerScores",
          "name": "score",
          "type": "tuple"
        },
        {
          "internalType": "uint256",
          "name": "totalScore",
          "type": "uint256"
        }
      ],
      "stateMutability": "view",
      "type": "function"
    },
    {
      "inputs": [
        {
          "internalType": "address",
          "name": "",
          "type": "address"
        }
      ],
      "name": "Scores",
      "outputs": [
        {
          "internalType": "address",
          "name": "user",
          "type": "address"
        },
        {
          "internalType": "uint256",
          "name": "score",
          "type": "uint256"
        },
        {
          "internalType": "string",
          "name": "grade",
          "type": "string"
        },
        {
          "internalType": "uint256",
          "name": "date",
          "type": "uint256"
        },
        {
          "internalType": "string",
          "name": "quizType",
          "type": "string"
        }
      ],
      "stateMutability": "view",
      "type": "function"
    },
    {
      "inputs": [
        {
          "internalType": "address",
          "name": "_user",
          "type": "address"
        },
        {
          "internalType": "uint256",
          "name": "_score",
          "type": "uint256"
        },
        {
          "internalType": "string",
          "name": "_quizType",
          "type": "string"
        }
      ],
      "name": "addScores",
      "outputs": [],
      "stateMutability": "nonpayable",
      "type": "function"
    },
    {
      "inputs": [],
      "name": "admin",
      "outputs": [
        {
          "internalType": "address",
          "name": "",
          "type": "address"
        }
      ],
      "stateMutability": "view",
      "type": "function"
    },
    {
      "inputs": [
        {
          "internalType": "address",
          "name": "user",
          "type": "address"
        }
      ],
      "name": "getScoreCert",
      "outputs": [
        {
          "internalType": "address",
          "name": "",
          "type": "address"
        },
        {
          "internalType": "uint256",
          "name": "",
          "type": "uint256"
        },
        {
          "internalType": "string",
          "name": "",
          "type": "string"
        },
        {
          "internalType": "string",
          "name": "",
          "type": "string"
        }
      ],
      "stateMutability": "view",
      "type": "function"
    }
  ],
  "bytecode": "0x6080604052348015600f57600080fd5b5033600660006101000a81548173ffffffffffffffffffffffffffffffffffffffff021916908373ffffffffffffffffffffffffffffffffffffffff1602179055506111d2806100606000396000f3fe608060405234801561001057600080fd5b50600436106100575760003560e01c8063045820b31461005c5780634f7f9ead1461007c5780638730925f14610098578063ee165b58146100cc578063f851a440146100ff575b600080fd5b61006461011d565b60405161007393929190610a45565b60405180910390f35b61009660048036038101906100919190610c24565b610205565b005b6100b260048036038101906100ad9190610c93565b6105cd565b6040516100c3959493929190610d0a565b60405180910390f35b6100e660048036038101906100e19190610c93565b610733565b6040516100f69493929190610d6b565b60405180910390f35b6101076108d6565b6040516101149190610dbe565b60405180910390f35b60008060000160009054906101000a900473ffffffffffffffffffffffffffffffffffffffff16908060010160405180606001604052908160008201805461016490610e08565b80601f016020809104026020016040519081016040528092919081815260200182805461019090610e08565b80156101dd5780601f106101b2576101008083540402835291602001916101dd565b820191906000526020600020905b8154815290600101906020018083116101c057829003601f168201915b5050505050815260200160018201548152602001600282015481525050908060040154905083565b600660009054906101000a900473ffffffffffffffffffffffffffffffffffffffff1673ffffffffffffffffffffffffffffffffffffffff163373ffffffffffffffffffffffffffffffffffffffff1614610295576040517f08c379a000000000000000000000000000000000000000000000000000000000815260040161028c90610eab565b60405180910390fd5b60008290506060605b82101580156102ae575060648211155b156102f0576040518060400160405280600281526020017f412b000000000000000000000000000000000000000000000000000000000000815250905061047d565b605182101580156103025750605a8211155b15610344576040518060400160405280600181526020017f4100000000000000000000000000000000000000000000000000000000000000815250905061047c565b60478210158015610356575060508211155b15610398576040518060400160405280600181526020017f4200000000000000000000000000000000000000000000000000000000000000815250905061047b565b603d82101580156103aa575060468211155b156103ec576040518060400160405280600181526020017f4300000000000000000000000000000000000000000000000000000000000000815250905061047a565b603282101580156103fe5750603c8211155b15610440576040518060400160405280600181526020017f44000000000000000000000000000000000000000000000000000000000000008152509050610479565b6040518060400160405280600181526020017f460000000000000000000000000000000000000000000000000000000000000081525090505b5b5b5b5b60004290506040518060a001604052808773ffffffffffffffffffffffffffffffffffffffff16815260200186815260200183815260200182815260200185815250600560008873ffffffffffffffffffffffffffffffffffffffff1673ffffffffffffffffffffffffffffffffffffffff16815260200190815260200160002060008201518160000160006101000a81548173ffffffffffffffffffffffffffffffffffffffff021916908373ffffffffffffffffffffffffffffffffffffffff1602179055506020820151816001015560408201518160020190816105649190611077565b506060820151816003015560808201518160040190816105849190611077565b509050507f12dd037b3e04971d2480e35deb4161216c58c2295e75d199caf1a55a1f7797bf338387876040516105bd9493929190611149565b60405180910390a1505050505050565b60056020528060005260406000206000915090508060000160009054906101000a900473ffffffffffffffffffffffffffffffffffffffff169080600101549080600201805461061c90610e08565b80601f016020809104026020016040519081016040528092919081815260200182805461064890610e08565b80156106955780601f1061066a57610100808354040283529160200191610695565b820191906000526020600020905b81548152906001019060200180831161067857829003601f168201915b5050505050908060030154908060040180546106b090610e08565b80601f01602080910402602001604051908101604052809291908181526020018280546106dc90610e08565b80156107295780601f106106fe57610100808354040283529160200191610729565b820191906000526020600020905b81548152906001019060200180831161070c57829003601f168201915b5050505050905085565b6000806060806000600560008773ffffffffffffffffffffffffffffffffffffffff1673ffffffffffffffffffffffffffffffffffffffff16815260200190815260200160002090508060000160009054906101000a900473ffffffffffffffffffffffffffffffffffffffff16816001015482600201836004018180546107ba90610e08565b80601f01602080910402602001604051908101604052809291908181526020018280546107e690610e08565b80156108335780601f1061080857610100808354040283529160200191610833565b820191906000526020600020905b81548152906001019060200180831161081657829003601f168201915b5050505050915080805461084690610e08565b80601f016020809104026020016040519081016040528092919081815260200182805461087290610e08565b80156108bf5780601f10610894576101008083540402835291602001916108bf565b820191906000526020600020905b8154815290600101906020018083116108a257829003601f168201915b505050505090509450945094509450509193509193565b600660009054906101000a900473ffffffffffffffffffffffffffffffffffffffff1681565b600073ffffffffffffffffffffffffffffffffffffffff82169050919050565b6000610927826108fc565b9050919050565b6109378161091c565b82525050565b600081519050919050565b600082825260208201905092915050565b60005b8381101561097757808201518184015260208101905061095c565b60008484015250505050565b6000601f19601f8301169050919050565b600061099f8261093d565b6109a98185610948565b93506109b9818560208601610959565b6109c281610983565b840191505092915050565b6000819050919050565b6109e0816109cd565b82525050565b60006060830160008301518482036000860152610a038282610994565b9150506020830151610a1860208601826109d7565b506040830151610a2b60408601826109d7565b508091505092915050565b610a3f816109cd565b82525050565b6000606082019050610a5a600083018661092e565b8181036020830152610a6c81856109e6565b9050610a7b6040830184610a36565b949350505050565b6000604051905090565b600080fd5b600080fd5b610aa08161091c565b8114610aab57600080fd5b50565b600081359050610abd81610a97565b92915050565b610acc816109cd565b8114610ad757600080fd5b50565b600081359050610ae981610ac3565b92915050565b600080fd5b600080fd5b7f4e487b7100000000000000000000000000000000000000000000000000000000600052604160045260246000fd5b610b3182610983565b810181811067ffffffffffffffff82111715610b5057610b4f610af9565b5b80604052505050565b6000610b63610a83565b9050610b6f8282610b28565b919050565b600067ffffffffffffffff821115610b8f57610b8e610af9565b5b610b9882610983565b9050602081019050919050565b82818337600083830152505050565b6000610bc7610bc284610b74565b610b59565b905082815260208101848484011115610be357610be2610af4565b5b610bee848285610ba5565b509392505050565b600082601f830112610c0b57610c0a610aef565b5b8135610c1b848260208601610bb4565b91505092915050565b600080600060608486031215610c3d57610c3c610a8d565b5b6000610c4b86828701610aae565b9350506020610c5c86828701610ada565b925050604084013567ffffffffffffffff811115610c7d57610c7c610a92565b5b610c8986828701610bf6565b9150509250925092565b600060208284031215610ca957610ca8610a8d565b5b6000610cb784828501610aae565b91505092915050565b600082825260208201905092915050565b6000610cdc8261093d565b610ce68185610cc0565b9350610cf6818560208601610959565b610cff81610983565b840191505092915050565b600060a082019050610d1f600083018861092e565b610d2c6020830187610a36565b8181036040830152610d3e8186610cd1565b9050610d4d6060830185610a36565b8181036080830152610d5f8184610cd1565b90509695505050505050565b6000608082019050610d80600083018761092e565b610d8d6020830186610a36565b8181036040830152610d9f8185610cd1565b90508181036060830152610db38184610cd1565b905095945050505050565b6000602082019050610dd3600083018461092e565b92915050565b7f4e487b7100000000000000000000000000000000000000000000000000000000600052602260045260246000fd5b60006002820490506001821680610e2057607f821691505b602082108103610e3357610e32610dd9565b5b50919050565b7f4f6e6c792061646d696e2063616e2063616c6c20746869732066756e6374696f60008201527f6e00000000000000000000000000000000000000000000000000000000000000602082015250565b6000610e95602183610cc0565b9150610ea082610e39565b604082019050919050565b60006020820190508181036000830152610ec481610e88565b9050919050565b60008190508160005260206000209050919050565b60006020601f8301049050919050565b600082821b905092915050565b600060088302610f2d7fffffffffffffffffffffffffffffffffffffffffffffffffffffffffffffffff82610ef0565b610f378683610ef0565b95508019841693508086168417925050509392505050565b6000819050919050565b6000610f74610f6f610f6a846109cd565b610f4f565b6109cd565b9050919050565b6000819050919050565b610f8e83610f59565b610fa2610f9a82610f7b565b848454610efd565b825550505050565b600090565b610fb7610faa565b610fc2818484610f85565b505050565b5b81811015610fe657610fdb600082610faf565b600181019050610fc8565b5050565b601f82111561102b57610ffc81610ecb565b61100584610ee0565b81016020851015611014578190505b61102861102085610ee0565b830182610fc7565b50505b505050565b600082821c905092915050565b600061104e60001984600802611030565b1980831691505092915050565b6000611067838361103d565b9150826002028217905092915050565b6110808261093d565b67ffffffffffffffff81111561109957611098610af9565b5b6110a38254610e08565b6110ae828285610fea565b600060209050601f8311600181146110e157600084156110cf578287015190505b6110d9858261105b565b865550611141565b601f1984166110ef86610ecb565b60005b82811015611117578489015182556001820191506020850194506020810190506110f2565b868310156111345784890151611130601f89168261103d565b8355505b6001600288020188555050505b505050505050565b600060808201905061115e600083018761092e565b81810360208301526111708186610cd1565b905061117f6040830185610a36565b81810360608301526111918184610cd1565b90509594505050505056fea26469706673582212204777a1a549dfc7ed14f109b5bb769805cc86b96347e326a60723a6802297b0a164736f6c634300081c0033",
  "linkReferences": {},
  "deployedLinkReferences": {}
}