{
  "_format": "hh-sol-artifact-1",
  "contractName": "triviaHub",
  "sourceName": "contracts/triviahub.sol",
  "abi": [
    {
      "inputs": [],
      "stateMutability": "nonpayable",
      "type": "constructor"
    },
    {
      "anonymous": false,
      "inputs": [
        {
          "indexed": true,
          "internalType": "address",
          "name": "walletAddress",
          "type": "address"
        },
        {
          "indexed": false,
          "internalType": "uint256",
          "name": "createdAt",
          "type": "uint256"
        }
      ],
      "name": "PlayerRegistered",
      "type": "event"
    },
    {
      "anonymous": false,
      "inputs": [
        {
          "indexed": true,
          "internalType": "address",
          "name": "player",
          "type": "address"
        },
        {
          "indexed": false,
          "internalType": "uint256",
          "name": "totalScore",
          "type": "uint256"
        },
        {
          "indexed": false,
          "internalType": "uint256",
          "name": "quizScore",
          "type": "uint256"
        },
        {
          "indexed": false,
          "internalType": "uint256",
          "name": "QuizId",
          "type": "uint256"
        }
      ],
      "name": "PlayerScoreUpdated",
      "type": "event"
    },
    {
      "anonymous": false,
      "inputs": [
        {
          "indexed": false,
          "internalType": "uint256",
          "name": "",
          "type": "uint256"
        },
        {
          "indexed": false,
          "internalType": "string",
          "name": "",
          "type": "string"
        },
        {
          "indexed": false,
          "internalType": "string",
          "name": "",
          "type": "string"
        }
      ],
      "name": "addCatgry",
      "type": "event"
    },
    {
      "anonymous": false,
      "inputs": [
        {
          "indexed": false,
          "internalType": "uint256",
          "name": "",
          "type": "uint256"
        },
        {
          "indexed": false,
          "internalType": "string",
          "name": "",
          "type": "string"
        },
        {
          "indexed": false,
          "internalType": "address",
          "name": "",
          "type": "address"
        }
      ],
      "name": "addQstn",
      "type": "event"
    },
    {
      "inputs": [
        {
          "internalType": "uint256",
          "name": "",
          "type": "uint256"
        }
      ],
      "name": "Categories",
      "outputs": [
        {
          "internalType": "uint256",
          "name": "catgryId",
          "type": "uint256"
        },
        {
          "internalType": "string",
          "name": "catgryType",
          "type": "string"
        },
        {
          "internalType": "string",
          "name": "title",
          "type": "string"
        },
        {
          "internalType": "uint256",
          "name": "numberOfQuestions",
          "type": "uint256"
        }
      ],
      "stateMutability": "view",
      "type": "function"
    },
    {
      "inputs": [
        {
          "internalType": "address",
          "name": "",
          "type": "address"
        }
      ],
      "name": "Players",
      "outputs": [
        {
          "internalType": "address",
          "name": "walletAddress",
          "type": "address"
        },
        {
          "internalType": "uint256",
          "name": "totalScore",
          "type": "uint256"
        },
        {
          "internalType": "uint256",
          "name": "createdAt",
          "type": "uint256"
        },
        {
          "internalType": "uint256",
          "name": "updatedAt",
          "type": "uint256"
        },
        {
          "internalType": "uint256",
          "name": "scores",
          "type": "uint256"
        },
        {
          "internalType": "uint256",
          "name": "setId",
          "type": "uint256"
        }
      ],
      "stateMutability": "view",
      "type": "function"
    },
    {
      "inputs": [
        {
          "internalType": "uint256",
          "name": "_catgryId",
          "type": "uint256"
        },
        {
          "internalType": "string",
          "name": "_catgryType",
          "type": "string"
        },
        {
          "internalType": "string",
          "name": "_title",
          "type": "string"
        },
        {
          "internalType": "uint256",
          "name": "_numberOfQuestions",
          "type": "uint256"
        }
      ],
      "name": "addCategory",
      "outputs": [],
      "stateMutability": "nonpayable",
      "type": "function"
    },
    {
      "inputs": [
        {
          "internalType": "uint256",
          "name": "_setId",
          "type": "uint256"
        },
        {
          "internalType": "string",
          "name": "_catgryType",
          "type": "string"
        },
        {
          "internalType": "string",
          "name": "_difficulty",
          "type": "string"
        },
        {
          "components": [
            {
              "internalType": "string",
              "name": "questionText",
              "type": "string"
            },
            {
              "internalType": "string[]",
              "name": "options",
              "type": "string[]"
            },
            {
              "internalType": "string",
              "name": "correctOption",
              "type": "string"
            }
          ],
          "internalType": "struct triviaHub.Question[]",
          "name": "_questions",
          "type": "tuple[]"
        },
        {
          "internalType": "address",
          "name": "_User",
          "type": "address"
        },
        {
          "internalType": "uint256",
          "name": "_createdAt",
          "type": "uint256"
        }
      ],
      "name": "addQuestionSet",
      "outputs": [],
      "stateMutability": "nonpayable",
      "type": "function"
    },
    {
      "inputs": [],
      "name": "admin",
      "outputs": [
        {
          "internalType": "address",
          "name": "",
          "type": "address"
        }
      ],
      "stateMutability": "view",
      "type": "function"
    },
    {
      "inputs": [
        {
          "internalType": "uint256",
          "name": "",
          "type": "uint256"
        }
      ],
      "name": "categoryIds",
      "outputs": [
        {
          "internalType": "uint256",
          "name": "",
          "type": "uint256"
        }
      ],
      "stateMutability": "view",
      "type": "function"
    },
    {
      "inputs": [
        {
          "components": [
            {
              "internalType": "uint256",
              "name": "setId",
              "type": "uint256"
            },
            {
              "internalType": "string",
              "name": "catgryType",
              "type": "string"
            },
            {
              "internalType": "string",
              "name": "difficulty",
              "type": "string"
            },
            {
              "components": [
                {
                  "internalType": "string",
                  "name": "questionText",
                  "type": "string"
                },
                {
                  "internalType": "string[]",
                  "name": "options",
                  "type": "string[]"
                },
                {
                  "internalType": "string",
                  "name": "correctOption",
                  "type": "string"
                }
              ],
              "internalType": "struct triviaHub.Question[]",
              "name": "questions",
              "type": "tuple[]"
            },
            {
              "internalType": "address",
              "name": "User",
              "type": "address"
            },
            {
              "internalType": "uint256",
              "name": "createdAt",
              "type": "uint256"
            }
          ],
          "internalType": "struct triviaHub.QuestionSet[]",
          "name": "questionSetList",
          "type": "tuple[]"
        }
      ],
      "name": "copyQuestionSetToStorage",
      "outputs": [],
      "stateMutability": "nonpayable",
      "type": "function"
    },
    {
      "inputs": [],
      "name": "getAllCategories",
      "outputs": [
        {
          "components": [
            {
              "internalType": "uint256",
              "name": "catgryId",
              "type": "uint256"
            },
            {
              "internalType": "string",
              "name": "catgryType",
              "type": "string"
            },
            {
              "internalType": "string",
              "name": "title",
              "type": "string"
            },
            {
              "internalType": "uint256",
              "name": "numberOfQuestions",
              "type": "uint256"
            }
          ],
          "internalType": "struct triviaHub.Category[]",
          "name": "",
          "type": "tuple[]"
        }
      ],
      "stateMutability": "view",
      "type": "function"
    },
    {
      "inputs": [],
      "name": "getLatestCategoryId",
      "outputs": [
        {
          "internalType": "uint256",
          "name": "",
          "type": "uint256"
        }
      ],
      "stateMutability": "view",
      "type": "function"
    },
    {
      "inputs": [],
      "name": "getLatestCategoryNameOrType",
      "outputs": [
        {
          "internalType": "string",
          "name": "name",
          "type": "string"
        },
        {
          "internalType": "string",
          "name": "type_",
          "type": "string"
        }
      ],
      "stateMutability": "view",
      "type": "function"
    },
    {
      "inputs": [],
      "name": "getLatestQuizId",
      "outputs": [
        {
          "internalType": "uint256",
          "name": "",
          "type": "uint256"
        }
      ],
      "stateMutability": "view",
      "type": "function"
    },
    {
      "inputs": [],
      "name": "latestCatgId",
      "outputs": [
        {
          "internalType": "uint256",
          "name": "",
          "type": "uint256"
        }
      ],
      "stateMutability": "view",
      "type": "function"
    },
    {
      "inputs": [],
      "name": "latestQuizId",
      "outputs": [
        {
          "internalType": "uint256",
          "name": "",
          "type": "uint256"
        }
      ],
      "stateMutability": "view",
      "type": "function"
    },
    {
      "inputs": [],
      "name": "listQuestionSets",
      "outputs": [
        {
          "components": [
            {
              "internalType": "uint256",
              "name": "setId",
              "type": "uint256"
            },
            {
              "internalType": "string",
              "name": "catgryType",
              "type": "string"
            },
            {
              "internalType": "string",
              "name": "difficulty",
              "type": "string"
            },
            {
              "components": [
                {
                  "internalType": "string",
                  "name": "questionText",
                  "type": "string"
                },
                {
                  "internalType": "string[]",
                  "name": "options",
                  "type": "string[]"
                },
                {
                  "internalType": "string",
                  "name": "correctOption",
                  "type": "string"
                }
              ],
              "internalType": "struct triviaHub.Question[]",
              "name": "questions",
              "type": "tuple[]"
            },
            {
              "internalType": "address",
              "name": "User",
              "type": "address"
            },
            {
              "internalType": "uint256",
              "name": "createdAt",
              "type": "uint256"
            }
          ],
          "internalType": "struct triviaHub.QuestionSet[]",
          "name": "",
          "type": "tuple[]"
        }
      ],
      "stateMutability": "view",
      "type": "function"
    },
    {
      "inputs": [
        {
          "internalType": "uint256",
          "name": "",
          "type": "uint256"
        }
      ],
      "name": "playerList",
      "outputs": [
        {
          "internalType": "address",
          "name": "",
          "type": "address"
        }
      ],
      "stateMutability": "view",
      "type": "function"
    },
    {
      "inputs": [
        {
          "internalType": "uint256",
          "name": "",
          "type": "uint256"
        }
      ],
      "name": "questionSets",
      "outputs": [
        {
          "internalType": "uint256",
          "name": "setId",
          "type": "uint256"
        },
        {
          "internalType": "string",
          "name": "catgryType",
          "type": "string"
        },
        {
          "internalType": "string",
          "name": "difficulty",
          "type": "string"
        },
        {
          "internalType": "address",
          "name": "User",
          "type": "address"
        },
        {
          "internalType": "uint256",
          "name": "createdAt",
          "type": "uint256"
        }
      ],
      "stateMutability": "view",
      "type": "function"
    },
    {
      "inputs": [
        {
          "internalType": "uint256",
          "name": "",
          "type": "uint256"
        }
      ],
      "name": "quizIds",
      "outputs": [
        {
          "internalType": "uint256",
          "name": "",
          "type": "uint256"
        }
      ],
      "stateMutability": "view",
      "type": "function"
    }
  ],
  "bytecode": "0x6080604052348015600f57600080fd5b50336000806101000a81548173ffffffffffffffffffffffffffffffffffffffff021916908373ffffffffffffffffffffffffffffffffffffffff160217905550612cf18061005f6000396000f3fe608060405234801561001057600080fd5b506004361061010b5760003560e01c80637f7f905d116100a2578063af4faade11610071578063af4faade146102db578063be784d5b146102f7578063d63098dd14610315578063dadd0a5714610345578063f851a440146103635761010b565b80637f7f905d146102505780638f4205a11461026e578063a687425d1461028d578063ae6d9073146102ab5761010b565b806336f582cb116100de57806336f582cb146101af5780633b9660c4146101cb57806349b6fdde146101ff57806369677af31461021d5761010b565b80630c66080c146101105780630d9fbf691461012c578063276a68051461014a5780632bff8dd61461017a575b600080fd5b61012a60048036038101906101259190611de7565b610381565b005b6101346105b4565b6040516101419190611e3f565b60405180910390f35b610164600480360381019061015f9190611e5a565b610632565b6040516101719190611e3f565b60405180910390f35b610194600480360381019061018f9190611e87565b610656565b6040516101a696959493929190611ec3565b60405180910390f35b6101c960048036038101906101c49190611f24565b6106b2565b005b6101e560048036038101906101e09190611e5a565b6108c1565b6040516101f6959493929190612084565b60405180910390f35b610207610a27565b6040516102149190611e3f565b60405180910390f35b61023760048036038101906102329190611e5a565b610aa5565b60405161024794939291906120e5565b60405180910390f35b610258610be5565b6040516102659190611e3f565b60405180910390f35b610276610beb565b604051610284929190612138565b60405180910390f35b610295610d75565b6040516102a29190611e3f565b60405180910390f35b6102c560048036038101906102c09190611e5a565b610d7b565b6040516102d2919061216f565b60405180910390f35b6102f560048036038101906102f0919061218a565b610dba565b005b6102ff610f00565b60405161030c91906125cc565b60405180910390f35b61032f600480360381019061032a9190611e5a565b6113b9565b60405161033c9190611e3f565b60405180910390f35b61034d6113dd565b60405161035a919061271a565b60405180910390f35b61036b611629565b604051610378919061216f565b60405180910390f35b60008054906101000a900473ffffffffffffffffffffffffffffffffffffffff1673ffffffffffffffffffffffffffffffffffffffff163373ffffffffffffffffffffffffffffffffffffffff161461040f576040517f08c379a000000000000000000000000000000000000000000000000000000000815260040161040690612788565b60405180910390fd5b60005b81518110156105b0576000600760008381526020019081526020016000209050828281518110610445576104446127a8565b5b602002602001015160000151816000018190555082828151811061046c5761046b6127a8565b5b60200260200101516020015181600101908161048891906129e3565b5082828151811061049c5761049b6127a8565b5b6020026020010151604001518160020190816104b891906129e3565b5060005b8383815181106104cf576104ce6127a8565b5b602002602001015160600151518110156105a157816003018484815181106104fa576104f96127a8565b5b6020026020010151606001518281518110610518576105176127a8565b5b60200260200101519080600181540180825580915050600190039060005260206000209060030201600090919091909150600082015181600001908161055e91906129e3565b50602082015181600101908051906020019061057b92919061164d565b50604082015181600201908161059191906129e3565b50505080806001019150506104bc565b50508080600101915050610412565b5050565b600080600880549050116105fd576040517f08c379a00000000000000000000000000000000000000000000000000000000081526004016105f490612b01565b60405180910390fd5b600860016008805490506106119190612b50565b81548110610622576106216127a8565b5b9060005260206000200154905090565b6008818154811061064257600080fd5b906000526020600020016000915090505481565b60046020528060005260406000206000915090508060000160009054906101000a900473ffffffffffffffffffffffffffffffffffffffff16908060010154908060020154908060030154908060040154908060050154905086565b60008054906101000a900473ffffffffffffffffffffffffffffffffffffffff1673ffffffffffffffffffffffffffffffffffffffff163373ffffffffffffffffffffffffffffffffffffffff1614610740576040517f08c379a000000000000000000000000000000000000000000000000000000000815260040161073790612788565b60405180910390fd5b60006007600088815260200190815260200160002090508681600001819055508581600101908161077191906129e3565b508481600201908161078391906129e3565b5060005b845181101561083057816003018582815181106107a7576107a66127a8565b5b6020026020010151908060018154018082558091505060019003906000526020600020906003020160009091909190915060008201518160000190816107ed91906129e3565b50602082015181600101908051906020019061080a92919061164d565b50604082015181600201908161082091906129e3565b5050508080600101915050610787565b50338160040160006101000a81548173ffffffffffffffffffffffffffffffffffffffff021916908373ffffffffffffffffffffffffffffffffffffffff1602179055504281600501819055507f602d2a77514434937178512d1fe1174a15c5a01b6b04fcb23768005d065ad5e28787856040516108b093929190612b84565b60405180910390a150505050505050565b60076020528060005260406000206000915090508060000154908060010180546108ea90612806565b80601f016020809104026020016040519081016040528092919081815260200182805461091690612806565b80156109635780601f1061093857610100808354040283529160200191610963565b820191906000526020600020905b81548152906001019060200180831161094657829003601f168201915b50505050509080600201805461097890612806565b80601f01602080910402602001604051908101604052809291908181526020018280546109a490612806565b80156109f15780601f106109c6576101008083540402835291602001916109f1565b820191906000526020600020905b8154815290600101906020018083116109d457829003601f168201915b5050505050908060040160009054906101000a900473ffffffffffffffffffffffffffffffffffffffff16908060050154905085565b60008060038054905011610a70576040517f08c379a0000000000000000000000000000000000000000000000000000000008152600401610a6790612c0e565b60405180910390fd5b60036001600380549050610a849190612b50565b81548110610a9557610a946127a8565b5b9060005260206000200154905090565b6002602052806000526040600020600091509050806000015490806001018054610ace90612806565b80601f0160208091040260200160405190810160405280929190818152602001828054610afa90612806565b8015610b475780601f10610b1c57610100808354040283529160200191610b47565b820191906000526020600020905b815481529060010190602001808311610b2a57829003601f168201915b505050505090806002018054610b5c90612806565b80601f0160208091040260200160405190810160405280929190818152602001828054610b8890612806565b8015610bd55780601f10610baa57610100808354040283529160200191610bd5565b820191906000526020600020905b815481529060010190602001808311610bb857829003601f168201915b5050505050908060030154905084565b60015481565b606080600060015411610c33576040517f08c379a0000000000000000000000000000000000000000000000000000000008152600401610c2a90612c0e565b60405180910390fd5b600060026000600154815260200190815260200160002090508060020181600101818054610c6090612806565b80601f0160208091040260200160405190810160405280929190818152602001828054610c8c90612806565b8015610cd95780601f10610cae57610100808354040283529160200191610cd9565b820191906000526020600020905b815481529060010190602001808311610cbc57829003601f168201915b50505050509150808054610cec90612806565b80601f0160208091040260200160405190810160405280929190818152602001828054610d1890612806565b8015610d655780601f10610d3a57610100808354040283529160200191610d65565b820191906000526020600020905b815481529060010190602001808311610d4857829003601f168201915b5050505050905092509250509091565b60065481565b60058181548110610d8b57600080fd5b906000526020600020016000915054906101000a900473ffffffffffffffffffffffffffffffffffffffff1681565b60008054906101000a900473ffffffffffffffffffffffffffffffffffffffff1673ffffffffffffffffffffffffffffffffffffffff163373ffffffffffffffffffffffffffffffffffffffff1614610e48576040517f08c379a0000000000000000000000000000000000000000000000000000000008152600401610e3f90612788565b60405180910390fd5b60405180608001604052808581526020018481526020018381526020018281525060026000868152602001908152602001600020600082015181600001556020820151816001019081610e9b91906129e3565b506040820151816002019081610eb191906129e3565b50606082015181600301559050507feab4b8bebfcae60dcddaf1ddd97472da84c2f0930c35cb5e3fc07babb4c7a78f848484604051610ef293929190612c2e565b60405180910390a150505050565b6060600060065467ffffffffffffffff811115610f2057610f1f6117c5565b5b604051908082528060200260200182016040528015610f5957816020015b610f466116a6565b815260200190600190039081610f3e5790505b5090506000600190505b60065481116113b157600760008281526020019081526020016000206040518060c001604052908160008201548152602001600182018054610fa490612806565b80601f0160208091040260200160405190810160405280929190818152602001828054610fd090612806565b801561101d5780601f10610ff25761010080835404028352916020019161101d565b820191906000526020600020905b81548152906001019060200180831161100057829003601f168201915b5050505050815260200160028201805461103690612806565b80601f016020809104026020016040519081016040528092919081815260200182805461106290612806565b80156110af5780601f10611084576101008083540402835291602001916110af565b820191906000526020600020905b81548152906001019060200180831161109257829003601f168201915b5050505050815260200160038201805480602002602001604051908101604052809291908181526020016000905b8282101561130c578382906000526020600020906003020160405180606001604052908160008201805461111090612806565b80601f016020809104026020016040519081016040528092919081815260200182805461113c90612806565b80156111895780601f1061115e57610100808354040283529160200191611189565b820191906000526020600020905b81548152906001019060200180831161116c57829003601f168201915b5050505050815260200160018201805480602002602001604051908101604052809291908181526020016000905b828210156112635783829060005260206000200180546111d690612806565b80601f016020809104026020016040519081016040528092919081815260200182805461120290612806565b801561124f5780601f106112245761010080835404028352916020019161124f565b820191906000526020600020905b81548152906001019060200180831161123257829003601f168201915b5050505050815260200190600101906111b7565b50505050815260200160028201805461127b90612806565b80601f01602080910402602001604051908101604052809291908181526020018280546112a790612806565b80156112f45780601f106112c9576101008083540402835291602001916112f4565b820191906000526020600020905b8154815290600101906020018083116112d757829003601f168201915b505050505081525050815260200190600101906110dd565b5050505081526020016004820160009054906101000a900473ffffffffffffffffffffffffffffffffffffffff1673ffffffffffffffffffffffffffffffffffffffff1673ffffffffffffffffffffffffffffffffffffffff168152602001600582015481525050826001836113829190612b50565b81518110611393576113926127a8565b5b602002602001018190525080806113a990612c73565b915050610f63565b508091505090565b600381815481106113c957600080fd5b906000526020600020016000915090505481565b6060600060015411611424576040517f08c379a000000000000000000000000000000000000000000000000000000000815260040161141b90612c0e565b60405180910390fd5b600060015467ffffffffffffffff811115611442576114416117c5565b5b60405190808252806020026020018201604052801561147b57816020015b6114686116f2565b8152602001906001900390816114605790505b5090506000600190505b60015481116116215760026000828152602001908152602001600020604051806080016040529081600082015481526020016001820180546114c690612806565b80601f01602080910402602001604051908101604052809291908181526020018280546114f290612806565b801561153f5780601f106115145761010080835404028352916020019161153f565b820191906000526020600020905b81548152906001019060200180831161152257829003601f168201915b5050505050815260200160028201805461155890612806565b80601f016020809104026020016040519081016040528092919081815260200182805461158490612806565b80156115d15780601f106115a6576101008083540402835291602001916115d1565b820191906000526020600020905b8154815290600101906020018083116115b457829003601f168201915b50505050508152602001600382015481525050826001836115f29190612b50565b81518110611603576116026127a8565b5b6020026020010181905250808061161990612c73565b915050611485565b508091505090565b60008054906101000a900473ffffffffffffffffffffffffffffffffffffffff1681565b828054828255906000526020600020908101928215611695579160200282015b8281111561169457825182908161168491906129e3565b509160200191906001019061166d565b5b5090506116a2919061171a565b5090565b6040518060c0016040528060008152602001606081526020016060815260200160608152602001600073ffffffffffffffffffffffffffffffffffffffff168152602001600081525090565b6040518060800160405280600081526020016060815260200160608152602001600081525090565b5b8082111561173a5760008181611731919061173e565b5060010161171b565b5090565b50805461174a90612806565b6000825580601f1061175c575061177b565b601f01602090049060005260206000209081019061177a919061177e565b5b50565b5b8082111561179757600081600090555060010161177f565b5090565b6000604051905090565b600080fd5b600080fd5b600080fd5b6000601f19601f8301169050919050565b7f4e487b7100000000000000000000000000000000000000000000000000000000600052604160045260246000fd5b6117fd826117b4565b810181811067ffffffffffffffff8211171561181c5761181b6117c5565b5b80604052505050565b600061182f61179b565b905061183b82826117f4565b919050565b600067ffffffffffffffff82111561185b5761185a6117c5565b5b602082029050602081019050919050565b600080fd5b600080fd5b600080fd5b6000819050919050565b61188e8161187b565b811461189957600080fd5b50565b6000813590506118ab81611885565b92915050565b600080fd5b600067ffffffffffffffff8211156118d1576118d06117c5565b5b6118da826117b4565b9050602081019050919050565b82818337600083830152505050565b6000611909611904846118b6565b611825565b905082815260208101848484011115611925576119246118b1565b5b6119308482856118e7565b509392505050565b600082601f83011261194d5761194c6117af565b5b813561195d8482602086016118f6565b91505092915050565b600067ffffffffffffffff821115611981576119806117c5565b5b602082029050602081019050919050565b600067ffffffffffffffff8211156119ad576119ac6117c5565b5b602082029050602081019050919050565b60006119d16119cc84611992565b611825565b905080838252602082019050602084028301858111156119f4576119f361186c565b5b835b81811015611a3b57803567ffffffffffffffff811115611a1957611a186117af565b5b808601611a268982611938565b855260208501945050506020810190506119f6565b5050509392505050565b600082601f830112611a5a57611a596117af565b5b8135611a6a8482602086016119be565b91505092915050565b600060608284031215611a8957611a88611871565b5b611a936060611825565b9050600082013567ffffffffffffffff811115611ab357611ab2611876565b5b611abf84828501611938565b600083015250602082013567ffffffffffffffff811115611ae357611ae2611876565b5b611aef84828501611a45565b602083015250604082013567ffffffffffffffff811115611b1357611b12611876565b5b611b1f84828501611938565b60408301525092915050565b6000611b3e611b3984611966565b611825565b90508083825260208201905060208402830185811115611b6157611b6061186c565b5b835b81811015611ba857803567ffffffffffffffff811115611b8657611b856117af565b5b808601611b938982611a73565b85526020850194505050602081019050611b63565b5050509392505050565b600082601f830112611bc757611bc66117af565b5b8135611bd7848260208601611b2b565b91505092915050565b600073ffffffffffffffffffffffffffffffffffffffff82169050919050565b6000611c0b82611be0565b9050919050565b611c1b81611c00565b8114611c2657600080fd5b50565b600081359050611c3881611c12565b92915050565b600060c08284031215611c5457611c53611871565b5b611c5e60c0611825565b90506000611c6e8482850161189c565b600083015250602082013567ffffffffffffffff811115611c9257611c91611876565b5b611c9e84828501611938565b602083015250604082013567ffffffffffffffff811115611cc257611cc1611876565b5b611cce84828501611938565b604083015250606082013567ffffffffffffffff811115611cf257611cf1611876565b5b611cfe84828501611bb2565b6060830152506080611d1284828501611c29565b60808301525060a0611d268482850161189c565b60a08301525092915050565b6000611d45611d4084611840565b611825565b90508083825260208201905060208402830185811115611d6857611d6761186c565b5b835b81811015611daf57803567ffffffffffffffff811115611d8d57611d8c6117af565b5b808601611d9a8982611c3e565b85526020850194505050602081019050611d6a565b5050509392505050565b600082601f830112611dce57611dcd6117af565b5b8135611dde848260208601611d32565b91505092915050565b600060208284031215611dfd57611dfc6117a5565b5b600082013567ffffffffffffffff811115611e1b57611e1a6117aa565b5b611e2784828501611db9565b91505092915050565b611e398161187b565b82525050565b6000602082019050611e546000830184611e30565b92915050565b600060208284031215611e7057611e6f6117a5565b5b6000611e7e8482850161189c565b91505092915050565b600060208284031215611e9d57611e9c6117a5565b5b6000611eab84828501611c29565b91505092915050565b611ebd81611c00565b82525050565b600060c082019050611ed86000830189611eb4565b611ee56020830188611e30565b611ef26040830187611e30565b611eff6060830186611e30565b611f0c6080830185611e30565b611f1960a0830184611e30565b979650505050505050565b60008060008060008060c08789031215611f4157611f406117a5565b5b6000611f4f89828a0161189c565b965050602087013567ffffffffffffffff811115611f7057611f6f6117aa565b5b611f7c89828a01611938565b955050604087013567ffffffffffffffff811115611f9d57611f9c6117aa565b5b611fa989828a01611938565b945050606087013567ffffffffffffffff811115611fca57611fc96117aa565b5b611fd689828a01611bb2565b9350506080611fe789828a01611c29565b92505060a0611ff889828a0161189c565b9150509295509295509295565b600081519050919050565b600082825260208201905092915050565b60005b8381101561203f578082015181840152602081019050612024565b60008484015250505050565b600061205682612005565b6120608185612010565b9350612070818560208601612021565b612079816117b4565b840191505092915050565b600060a0820190506120996000830188611e30565b81810360208301526120ab818761204b565b905081810360408301526120bf818661204b565b90506120ce6060830185611eb4565b6120db6080830184611e30565b9695505050505050565b60006080820190506120fa6000830187611e30565b818103602083015261210c818661204b565b90508181036040830152612120818561204b565b905061212f6060830184611e30565b95945050505050565b60006040820190508181036000830152612152818561204b565b90508181036020830152612166818461204b565b90509392505050565b60006020820190506121846000830184611eb4565b92915050565b600080600080608085870312156121a4576121a36117a5565b5b60006121b28782880161189c565b945050602085013567ffffffffffffffff8111156121d3576121d26117aa565b5b6121df87828801611938565b935050604085013567ffffffffffffffff811115612200576121ff6117aa565b5b61220c87828801611938565b925050606061221d8782880161189c565b91505092959194509250565b600081519050919050565b600082825260208201905092915050565b6000819050602082019050919050565b61225e8161187b565b82525050565b600082825260208201905092915050565b600061228082612005565b61228a8185612264565b935061229a818560208601612021565b6122a3816117b4565b840191505092915050565b600081519050919050565b600082825260208201905092915050565b6000819050602082019050919050565b600081519050919050565b600082825260208201905092915050565b6000819050602082019050919050565b60006123128383612275565b905092915050565b6000602082019050919050565b6000612332826122da565b61233c81856122e5565b93508360208202850161234e856122f6565b8060005b8581101561238a578484038952815161236b8582612306565b94506123768361231a565b925060208a01995050600181019050612352565b50829750879550505050505092915050565b600060608301600083015184820360008601526123b98282612275565b915050602083015184820360208601526123d38282612327565b915050604083015184820360408601526123ed8282612275565b9150508091505092915050565b6000612406838361239c565b905092915050565b6000602082019050919050565b6000612426826122ae565b61243081856122b9565b935083602082028501612442856122ca565b8060005b8581101561247e578484038952815161245f85826123fa565b945061246a8361240e565b925060208a01995050600181019050612446565b50829750879550505050505092915050565b61249981611c00565b82525050565b600060c0830160008301516124b76000860182612255565b50602083015184820360208601526124cf8282612275565b915050604083015184820360408601526124e98282612275565b91505060608301518482036060860152612503828261241b565b91505060808301516125186080860182612490565b5060a083015161252b60a0860182612255565b508091505092915050565b6000612542838361249f565b905092915050565b6000602082019050919050565b600061256282612229565b61256c8185612234565b93508360208202850161257e85612245565b8060005b858110156125ba578484038952815161259b8582612536565b94506125a68361254a565b925060208a01995050600181019050612582565b50829750879550505050505092915050565b600060208201905081810360008301526125e68184612557565b905092915050565b600081519050919050565b600082825260208201905092915050565b6000819050602082019050919050565b60006080830160008301516126326000860182612255565b506020830151848203602086015261264a8282612275565b915050604083015184820360408601526126648282612275565b91505060608301516126796060860182612255565b508091505092915050565b6000612690838361261a565b905092915050565b6000602082019050919050565b60006126b0826125ee565b6126ba81856125f9565b9350836020820285016126cc8561260a565b8060005b8581101561270857848403895281516126e98582612684565b94506126f483612698565b925060208a019950506001810190506126d0565b50829750879550505050505092915050565b6000602082019050818103600083015261273481846126a5565b905092915050565b7f4e6f7420617574686f7269736564000000000000000000000000000000000000600082015250565b6000612772600e83612010565b915061277d8261273c565b602082019050919050565b600060208201905081810360008301526127a181612765565b9050919050565b7f4e487b7100000000000000000000000000000000000000000000000000000000600052603260045260246000fd5b7f4e487b7100000000000000000000000000000000000000000000000000000000600052602260045260246000fd5b6000600282049050600182168061281e57607f821691505b602082108103612831576128306127d7565b5b50919050565b60008190508160005260206000209050919050565b60006020601f8301049050919050565b600082821b905092915050565b6000600883026128997fffffffffffffffffffffffffffffffffffffffffffffffffffffffffffffffff8261285c565b6128a3868361285c565b95508019841693508086168417925050509392505050565b6000819050919050565b60006128e06128db6128d68461187b565b6128bb565b61187b565b9050919050565b6000819050919050565b6128fa836128c5565b61290e612906826128e7565b848454612869565b825550505050565b600090565b612923612916565b61292e8184846128f1565b505050565b5b818110156129525761294760008261291b565b600181019050612934565b5050565b601f8211156129975761296881612837565b6129718461284c565b81016020851015612980578190505b61299461298c8561284c565b830182612933565b50505b505050565b600082821c905092915050565b60006129ba6000198460080261299c565b1980831691505092915050565b60006129d383836129a9565b9150826002028217905092915050565b6129ec82612005565b67ffffffffffffffff811115612a0557612a046117c5565b5b612a0f8254612806565b612a1a828285612956565b600060209050601f831160018114612a4d5760008415612a3b578287015190505b612a4585826129c7565b865550612aad565b601f198416612a5b86612837565b60005b82811015612a8357848901518255600182019150602085019450602081019050612a5e565b86831015612aa05784890151612a9c601f8916826129a9565b8355505b6001600288020188555050505b505050505050565b7f4e6f205175697a2073657420617661696c61626c652e00000000000000000000600082015250565b6000612aeb601683612010565b9150612af682612ab5565b602082019050919050565b60006020820190508181036000830152612b1a81612ade565b9050919050565b7f4e487b7100000000000000000000000000000000000000000000000000000000600052601160045260246000fd5b6000612b5b8261187b565b9150612b668361187b565b9250828203905081811115612b7e57612b7d612b21565b5b92915050565b6000606082019050612b996000830186611e30565b8181036020830152612bab818561204b565b9050612bba6040830184611eb4565b949350505050565b7f4e6f2063617465676f7269657320617661696c61626c652e0000000000000000600082015250565b6000612bf8601883612010565b9150612c0382612bc2565b602082019050919050565b60006020820190508181036000830152612c2781612beb565b9050919050565b6000606082019050612c436000830186611e30565b8181036020830152612c55818561204b565b90508181036040830152612c69818461204b565b9050949350505050565b6000612c7e8261187b565b91507fffffffffffffffffffffffffffffffffffffffffffffffffffffffffffffffff8203612cb057612caf612b21565b5b60018201905091905056fea26469706673582212209effb6ef1f749edc3f6c586784fdf40d80625b0dc3a3ff0e93eaa7a404a9cb8564736f6c634300081c0033",
  "linkReferences": {},
  "deployedLinkReferences": {}
}