{
  "_format": "hh-sol-artifact-1",
  "contractName": "triviaHub",
  "sourceName": "contracts/triviahub.sol",
  "abi": [
    {
      "inputs": [],
      "stateMutability": "nonpayable",
      "type": "constructor"
    },
    {
      "anonymous": false,
      "inputs": [
        {
          "indexed": false,
          "internalType": "uint256",
          "name": "",
          "type": "uint256"
        },
        {
          "indexed": false,
          "internalType": "string",
          "name": "",
          "type": "string"
        },
        {
          "indexed": false,
          "internalType": "string",
          "name": "",
          "type": "string"
        }
      ],
      "name": "setCategory",
      "type": "event"
    },
    {
      "inputs": [
        {
          "internalType": "uint256",
          "name": "",
          "type": "uint256"
        }
      ],
      "name": "Categories",
      "outputs": [
        {
          "internalType": "string",
          "name": "catgryType",
          "type": "string"
        },
        {
          "internalType": "string",
          "name": "ipfsHash",
          "type": "string"
        }
      ],
      "stateMutability": "view",
      "type": "function"
    },
    {
      "inputs": [],
      "name": "admin",
      "outputs": [
        {
          "internalType": "address",
          "name": "",
          "type": "address"
        }
      ],
      "stateMutability": "view",
      "type": "function"
    },
    {
      "inputs": [
        {
          "internalType": "uint256",
          "name": "_ctgryId",
          "type": "uint256"
        },
        {
          "internalType": "string",
          "name": "_catgryType",
          "type": "string"
        },
        {
          "internalType": "string",
          "name": "_ipfsHash",
          "type": "string"
        }
      ],
      "name": "setCatgry",
      "outputs": [],
      "stateMutability": "nonpayable",
      "type": "function"
    }
  ],
  "bytecode": "0x6080604052348015600f57600080fd5b50336000806101000a81548173ffffffffffffffffffffffffffffffffffffffff021916908373ffffffffffffffffffffffffffffffffffffffff160217905550610a5c8061005f6000396000f3fe608060405234801561001057600080fd5b50600436106100415760003560e01c806369677af314610046578063ba408c5814610077578063f851a44014610093575b600080fd5b610060600480360381019061005b9190610378565b6100b1565b60405161006e929190610435565b60405180910390f35b610091600480360381019061008c91906105a1565b6101e5565b005b61009b61030a565b6040516100a8919061066d565b60405180910390f35b60016020528060005260406000206000915090508060000180546100d4906106b7565b80601f0160208091040260200160405190810160405280929190818152602001828054610100906106b7565b801561014d5780601f106101225761010080835404028352916020019161014d565b820191906000526020600020905b81548152906001019060200180831161013057829003601f168201915b505050505090806001018054610162906106b7565b80601f016020809104026020016040519081016040528092919081815260200182805461018e906106b7565b80156101db5780601f106101b0576101008083540402835291602001916101db565b820191906000526020600020905b8154815290600101906020018083116101be57829003601f168201915b5050505050905082565b60008054906101000a900473ffffffffffffffffffffffffffffffffffffffff1673ffffffffffffffffffffffffffffffffffffffff163373ffffffffffffffffffffffffffffffffffffffff1614610273576040517f08c379a000000000000000000000000000000000000000000000000000000000815260040161026a90610734565b60405180910390fd5b6040518060400160405280838152602001828152506001600085815260200190815260200160002060008201518160000190816102b09190610900565b5060208201518160010190816102c69190610900565b509050507fadc574076696d889dae96d4fab5f31b0a9406b8e53f672e6a95646ce8483c8458383836040516102fd939291906109e1565b60405180910390a1505050565b60008054906101000a900473ffffffffffffffffffffffffffffffffffffffff1681565b6000604051905090565b600080fd5b600080fd5b6000819050919050565b61035581610342565b811461036057600080fd5b50565b6000813590506103728161034c565b92915050565b60006020828403121561038e5761038d610338565b5b600061039c84828501610363565b91505092915050565b600081519050919050565b600082825260208201905092915050565b60005b838110156103df5780820151818401526020810190506103c4565b60008484015250505050565b6000601f19601f8301169050919050565b6000610407826103a5565b61041181856103b0565b93506104218185602086016103c1565b61042a816103eb565b840191505092915050565b6000604082019050818103600083015261044f81856103fc565b9050818103602083015261046381846103fc565b90509392505050565b600080fd5b600080fd5b7f4e487b7100000000000000000000000000000000000000000000000000000000600052604160045260246000fd5b6104ae826103eb565b810181811067ffffffffffffffff821117156104cd576104cc610476565b5b80604052505050565b60006104e061032e565b90506104ec82826104a5565b919050565b600067ffffffffffffffff82111561050c5761050b610476565b5b610515826103eb565b9050602081019050919050565b82818337600083830152505050565b600061054461053f846104f1565b6104d6565b9050828152602081018484840111156105605761055f610471565b5b61056b848285610522565b509392505050565b600082601f8301126105885761058761046c565b5b8135610598848260208601610531565b91505092915050565b6000806000606084860312156105ba576105b9610338565b5b60006105c886828701610363565b935050602084013567ffffffffffffffff8111156105e9576105e861033d565b5b6105f586828701610573565b925050604084013567ffffffffffffffff8111156106165761061561033d565b5b61062286828701610573565b9150509250925092565b600073ffffffffffffffffffffffffffffffffffffffff82169050919050565b60006106578261062c565b9050919050565b6106678161064c565b82525050565b6000602082019050610682600083018461065e565b92915050565b7f4e487b7100000000000000000000000000000000000000000000000000000000600052602260045260246000fd5b600060028204905060018216806106cf57607f821691505b6020821081036106e2576106e1610688565b5b50919050565b7f4e6f7420617574686f7269736564000000000000000000000000000000000000600082015250565b600061071e600e836103b0565b9150610729826106e8565b602082019050919050565b6000602082019050818103600083015261074d81610711565b9050919050565b60008190508160005260206000209050919050565b60006020601f8301049050919050565b600082821b905092915050565b6000600883026107b67fffffffffffffffffffffffffffffffffffffffffffffffffffffffffffffffff82610779565b6107c08683610779565b95508019841693508086168417925050509392505050565b6000819050919050565b60006107fd6107f86107f384610342565b6107d8565b610342565b9050919050565b6000819050919050565b610817836107e2565b61082b61082382610804565b848454610786565b825550505050565b600090565b610840610833565b61084b81848461080e565b505050565b5b8181101561086f57610864600082610838565b600181019050610851565b5050565b601f8211156108b45761088581610754565b61088e84610769565b8101602085101561089d578190505b6108b16108a985610769565b830182610850565b50505b505050565b600082821c905092915050565b60006108d7600019846008026108b9565b1980831691505092915050565b60006108f083836108c6565b9150826002028217905092915050565b610909826103a5565b67ffffffffffffffff81111561092257610921610476565b5b61092c82546106b7565b610937828285610873565b600060209050601f83116001811461096a5760008415610958578287015190505b61096285826108e4565b8655506109ca565b601f19841661097886610754565b60005b828110156109a05784890151825560018201915060208501945060208101905061097b565b868310156109bd57848901516109b9601f8916826108c6565b8355505b6001600288020188555050505b505050505050565b6109db81610342565b82525050565b60006060820190506109f660008301866109d2565b8181036020830152610a0881856103fc565b90508181036040830152610a1c81846103fc565b905094935050505056fea264697066735822122010192cb93a8e69a8b382fff9286bf817d670f4649ca600dd42c6c0ce631b44d564736f6c634300081c0033",
  "linkReferences": {},
  "deployedLinkReferences": {}
}